{
  "contractName": "Will",
  "abi": [
    {
      "inputs": [],
      "stateMutability": "nonpayable",
      "type": "constructor"
    },
    {
      "inputs": [
        {
          "internalType": "string",
          "name": "_email",
          "type": "string"
        },
        {
          "internalType": "string",
          "name": "_username",
          "type": "string"
        },
        {
          "internalType": "string",
          "name": "_will",
          "type": "string"
        },
        {
          "internalType": "string",
          "name": "_audioHash",
          "type": "string"
        }
      ],
      "name": "setWill",
      "outputs": [],
      "stateMutability": "nonpayable",
      "type": "function"
    },
    {
      "inputs": [],
      "name": "getWill",
      "outputs": [
        {
          "internalType": "string",
          "name": "",
          "type": "string"
        },
        {
          "internalType": "string",
          "name": "",
          "type": "string"
        },
        {
          "internalType": "string",
          "name": "",
          "type": "string"
        },
        {
          "internalType": "string",
          "name": "",
          "type": "string"
        },
        {
          "internalType": "uint256",
          "name": "",
          "type": "uint256"
        }
      ],
      "stateMutability": "view",
      "type": "function",
      "constant": true
    }
  ],
  "bytecode": "0x608060405234801561001057600080fd5b50426004819055506107a8806100276000396000f3fe608060405234801561001057600080fd5b50600436106100365760003560e01c80631a1ab9501461003b578063c7fbad261461005d575b600080fd5b610043610079565b604051610054959493929190610483565b60405180910390f35b6100776004803603810190610072919061063b565b6102cc565b005b60608060608060008060016002600360045484805461009790610741565b80601f01602080910402602001604051908101604052809291908181526020018280546100c390610741565b80156101105780601f106100e557610100808354040283529160200191610110565b820191906000526020600020905b8154815290600101906020018083116100f357829003601f168201915b5050505050945083805461012390610741565b80601f016020809104026020016040519081016040528092919081815260200182805461014f90610741565b801561019c5780601f106101715761010080835404028352916020019161019c565b820191906000526020600020905b81548152906001019060200180831161017f57829003601f168201915b505050505093508280546101af90610741565b80601f01602080910402602001604051908101604052809291908181526020018280546101db90610741565b80156102285780601f106101fd57610100808354040283529160200191610228565b820191906000526020600020905b81548152906001019060200180831161020b57829003601f168201915b5050505050925081805461023b90610741565b80601f016020809104026020016040519081016040528092919081815260200182805461026790610741565b80156102b45780601f10610289576101008083540402835291602001916102b4565b820191906000526020600020905b81548152906001019060200180831161029757829003601f168201915b50505050509150945094509450945094509091929394565b83600090805190602001906102e292919061032e565b5082600190805190602001906102f992919061032e565b50816002908051906020019061031092919061032e565b50806003908051906020019061032792919061032e565b5050505050565b82805461033a90610741565b90600052602060002090601f01602090048101928261035c57600085556103a3565b82601f1061037557805160ff19168380011785556103a3565b828001600101855582156103a3579182015b828111156103a2578251825591602001919060010190610387565b5b5090506103b091906103b4565b5090565b5b808211156103cd5760008160009055506001016103b5565b5090565b600081519050919050565b600082825260208201905092915050565b60005b8381101561040b5780820151818401526020810190506103f0565b8381111561041a576000848401525b50505050565b6000601f19601f8301169050919050565b600061043c826103d1565b61044681856103dc565b93506104568185602086016103ed565b61045f81610420565b840191505092915050565b6000819050919050565b61047d8161046a565b82525050565b600060a082019050818103600083015261049d8188610431565b905081810360208301526104b18187610431565b905081810360408301526104c58186610431565b905081810360608301526104d98185610431565b90506104e86080830184610474565b9695505050505050565b6000604051905090565b600080fd5b600080fd5b600080fd5b600080fd5b7f4e487b7100000000000000000000000000000000000000000000000000000000600052604160045260246000fd5b61054882610420565b810181811067ffffffffffffffff8211171561056757610566610510565b5b80604052505050565b600061057a6104f2565b9050610586828261053f565b919050565b600067ffffffffffffffff8211156105a6576105a5610510565b5b6105af82610420565b9050602081019050919050565b82818337600083830152505050565b60006105de6105d98461058b565b610570565b9050828152602081018484840111156105fa576105f961050b565b5b6106058482856105bc565b509392505050565b600082601f83011261062257610621610506565b5b81356106328482602086016105cb565b91505092915050565b60008060008060808587031215610655576106546104fc565b5b600085013567ffffffffffffffff81111561067357610672610501565b5b61067f8782880161060d565b945050602085013567ffffffffffffffff8111156106a05761069f610501565b5b6106ac8782880161060d565b935050604085013567ffffffffffffffff8111156106cd576106cc610501565b5b6106d98782880161060d565b925050606085013567ffffffffffffffff8111156106fa576106f9610501565b5b6107068782880161060d565b91505092959194509250565b7f4e487b7100000000000000000000000000000000000000000000000000000000600052602260045260246000fd5b6000600282049050600182168061075957607f821691505b60208210810361076c5761076b610712565b5b5091905056fea264697066735822122084897a5987b3438154f29647c75cff66d01c698408c5e3d5dd84dafe2259a4e364736f6c634300080d0033",
  "immutableReferences": {},
  "source": "// SPDX-License-Identifier: MIT\r\npragma solidity >=0.4.22 <0.9.0;\r\n\r\ncontract Will {\r\n    string private email;\r\n    string private username;\r\n    string private will;\r\n    string private audioHash;\r\n    uint256 private createdTimestamp; //   \r\n\r\n    constructor() {\r\n        createdTimestamp = block.timestamp; //       \r\n    }\r\n\r\n    function setWill(\r\n        string memory _email,\r\n        string memory _username,\r\n        string memory _will,\r\n        string memory _audioHash\r\n    ) public {\r\n        email = _email;\r\n        username = _username;\r\n        will = _will;\r\n        audioHash = _audioHash;\r\n    }\r\n\r\n    function getWill()\r\n        public\r\n        view\r\n        returns (\r\n            string memory,\r\n            string memory,\r\n            string memory,\r\n            string memory,\r\n            uint256\r\n        )\r\n    {\r\n        return (email, username, will, audioHash, createdTimestamp);\r\n    }\r\n}\r\n",
  "sourcePath": "C:\\git\\project\\WILL\\frontend\\src\\contracts\\Will.sol",
  "compiler": {
    "name": "solc",
    "version": "0.8.13+commit.abaa5c0e.Emscripten.clang"
  },
  "schemaVersion": "3.4.14",
  "updatedAt": "2023-09-10T16:07:41.388Z",
  "networkType": "ethereum",
  "devdoc": {
    "kind": "dev",
    "methods": {},
    "version": 1
  },
  "userdoc": {
    "kind": "user",
    "methods": {},
    "version": 1
  }
}