{
  "contractName": "Will",
  "abi": [
    {
      "inputs": [],
      "stateMutability": "nonpayable",
      "type": "constructor"
    },
    {
      "inputs": [
        {
          "internalType": "string",
          "name": "_email",
          "type": "string"
        },
        {
          "internalType": "string",
          "name": "_username",
          "type": "string"
        },
        {
          "internalType": "string",
          "name": "_will",
          "type": "string"
        },
        {
          "internalType": "string",
          "name": "_audioHash",
          "type": "string"
        },
        {
          "internalType": "string",
          "name": "_createdAt",
          "type": "string"
        },
        {
          "internalType": "string",
          "name": "_willHash",
          "type": "string"
        }
      ],
      "name": "setWill",
      "outputs": [],
      "stateMutability": "nonpayable",
      "type": "function"
    },
    {
      "inputs": [],
      "name": "getWill",
      "outputs": [
        {
          "internalType": "string",
          "name": "",
          "type": "string"
        },
        {
          "internalType": "string",
          "name": "",
          "type": "string"
        },
        {
          "internalType": "string",
          "name": "",
          "type": "string"
        },
        {
          "internalType": "string",
          "name": "",
          "type": "string"
        },
        {
          "internalType": "string",
          "name": "",
          "type": "string"
        },
        {
          "internalType": "string",
          "name": "",
          "type": "string"
        }
      ],
      "stateMutability": "view",
      "type": "function"
    }
  ],
  "bytecode": "0x608060405234801561001057600080fd5b50610958806100206000396000f3fe608060405234801561001057600080fd5b50600436106100365760003560e01c80631a1ab9501461003b5780633d140bd91461005e575b600080fd5b61004361007a565b604051610055969594939291906105b9565b60405180910390f35b6100786004803603810190610073919061078d565b6103eb565b005b60608060608060608060006001600260036004600585805461009b906108f1565b80601f01602080910402602001604051908101604052809291908181526020018280546100c7906108f1565b80156101145780601f106100e957610100808354040283529160200191610114565b820191906000526020600020905b8154815290600101906020018083116100f757829003601f168201915b50505050509550848054610127906108f1565b80601f0160208091040260200160405190810160405280929190818152602001828054610153906108f1565b80156101a05780601f10610175576101008083540402835291602001916101a0565b820191906000526020600020905b81548152906001019060200180831161018357829003601f168201915b505050505094508380546101b3906108f1565b80601f01602080910402602001604051908101604052809291908181526020018280546101df906108f1565b801561022c5780601f106102015761010080835404028352916020019161022c565b820191906000526020600020905b81548152906001019060200180831161020f57829003601f168201915b5050505050935082805461023f906108f1565b80601f016020809104026020016040519081016040528092919081815260200182805461026b906108f1565b80156102b85780601f1061028d576101008083540402835291602001916102b8565b820191906000526020600020905b81548152906001019060200180831161029b57829003601f168201915b505050505092508180546102cb906108f1565b80601f01602080910402602001604051908101604052809291908181526020018280546102f7906108f1565b80156103445780601f1061031957610100808354040283529160200191610344565b820191906000526020600020905b81548152906001019060200180831161032757829003601f168201915b50505050509150808054610357906108f1565b80601f0160208091040260200160405190810160405280929190818152602001828054610383906108f1565b80156103d05780601f106103a5576101008083540402835291602001916103d0565b820191906000526020600020905b8154815290600101906020018083116103b357829003601f168201915b50505050509050955095509550955095509550909192939495565b856000908051906020019061040192919061047d565b50846001908051906020019061041892919061047d565b50836002908051906020019061042f92919061047d565b50826003908051906020019061044692919061047d565b50816004908051906020019061045d92919061047d565b50806005908051906020019061047492919061047d565b50505050505050565b828054610489906108f1565b90600052602060002090601f0160209004810192826104ab57600085556104f2565b82601f106104c457805160ff19168380011785556104f2565b828001600101855582156104f2579182015b828111156104f15782518255916020019190600101906104d6565b5b5090506104ff9190610503565b5090565b5b8082111561051c576000816000905550600101610504565b5090565b600081519050919050565b600082825260208201905092915050565b60005b8381101561055a57808201518184015260208101905061053f565b83811115610569576000848401525b50505050565b6000601f19601f8301169050919050565b600061058b82610520565b610595818561052b565b93506105a581856020860161053c565b6105ae8161056f565b840191505092915050565b600060c08201905081810360008301526105d38189610580565b905081810360208301526105e78188610580565b905081810360408301526105fb8187610580565b9050818103606083015261060f8186610580565b905081810360808301526106238185610580565b905081810360a08301526106378184610580565b9050979650505050505050565b6000604051905090565b600080fd5b600080fd5b600080fd5b600080fd5b7f4e487b7100000000000000000000000000000000000000000000000000000000600052604160045260246000fd5b61069a8261056f565b810181811067ffffffffffffffff821117156106b9576106b8610662565b5b80604052505050565b60006106cc610644565b90506106d88282610691565b919050565b600067ffffffffffffffff8211156106f8576106f7610662565b5b6107018261056f565b9050602081019050919050565b82818337600083830152505050565b600061073061072b846106dd565b6106c2565b90508281526020810184848401111561074c5761074b61065d565b5b61075784828561070e565b509392505050565b600082601f83011261077457610773610658565b5b813561078484826020860161071d565b91505092915050565b60008060008060008060c087890312156107aa576107a961064e565b5b600087013567ffffffffffffffff8111156107c8576107c7610653565b5b6107d489828a0161075f565b965050602087013567ffffffffffffffff8111156107f5576107f4610653565b5b61080189828a0161075f565b955050604087013567ffffffffffffffff81111561082257610821610653565b5b61082e89828a0161075f565b945050606087013567ffffffffffffffff81111561084f5761084e610653565b5b61085b89828a0161075f565b935050608087013567ffffffffffffffff81111561087c5761087b610653565b5b61088889828a0161075f565b92505060a087013567ffffffffffffffff8111156108a9576108a8610653565b5b6108b589828a0161075f565b9150509295509295509295565b7f4e487b7100000000000000000000000000000000000000000000000000000000600052602260045260246000fd5b6000600282049050600182168061090957607f821691505b60208210810361091c5761091b6108c2565b5b5091905056fea2646970667358221220a4b42369ccae38da0e75054fa14c2a07af6c02765bd25d9f0eea1a67eb2d834964736f6c634300080d0033",
  "immutableReferences": {},
  "source": "// SPDX-License-Identifier: MIT\r\npragma solidity >=0.4.22 <0.9.0;\r\n\r\ncontract Will {\r\n    string private email;\r\n    string private username;\r\n    string private will;\r\n    string private audioHash;\r\n    string private createdAt;\r\n    string private willHash;\r\n\r\n    constructor() {}\r\n\r\n    function setWill(\r\n        string memory _email,\r\n        string memory _username,\r\n        string memory _will,\r\n        string memory _audioHash,\r\n        string memory _createdAt,\r\n        string memory _willHash\r\n    ) public {\r\n        email = _email;\r\n        username = _username;\r\n        will = _will;\r\n        audioHash = _audioHash;\r\n        createdAt = _createdAt;\r\n        willHash = _willHash;\r\n    }\r\n\r\n    function getWill()\r\n        public\r\n        view\r\n        returns (\r\n            string memory,\r\n            string memory,\r\n            string memory,\r\n            string memory,\r\n            string memory,\r\n            string memory\r\n        )\r\n    {\r\n        return (email, username, will, audioHash, createdAt, willHash);\r\n    }\r\n}\r\n",
  "sourcePath": "C:\\git\\project\\WILL\\frontend\\src\\contracts\\Will.sol",
  "compiler": {
    "name": "solc",
    "version": "0.8.13+commit.abaa5c0e.Emscripten.clang"
  },
  "schemaVersion": "3.4.14",
  "updatedAt": "2023-09-14T09:42:19.343Z",
  "devdoc": {
    "kind": "dev",
    "methods": {},
    "version": 1
  },
  "userdoc": {
    "kind": "user",
    "methods": {},
    "version": 1
  }
}